:100000000C945E000C9486000C9486000C94860080
:100010000C9486000C9486000C9486000C94860048
:100020000C9486000C9486000C9486000C94860038
:100030000C9486000C9486000C9486000C94860028
:100040000C9421010C9486000C9486000C9486007C
:100050000C9486000C9486000C9486000C94860008
:100060000C9486000C9486000000000024002700F9
:100070002A0000000000250028002B0004040404CE
:100080000404040402020202020203030303030342
:10009000010204081020408001020408102001021F
:1000A00004081020000000080002010000030407FB
:1000B00000000000000000004902570211241FBE8A
:1000C000CFEFD8E0DEBFCDBF21E0AEE0B1E001C0B0
:1000D0001D92A532B207E1F711E0A0E0B1E0EAE439
:1000E000F9E002C005900D92AE30B107D9F710E0EB
:1000F000CDE5D0E004C02197FE010E949702CC35E7
:10010000D107C9F70E946B010C9498040C9400006D
:10011000E9EAF0E02491E5E9F0E09491E1E8F0E02B
:10012000E491EE23C9F0222339F0233001F1A8F441
:10013000213019F1223029F1F0E0EE0FFF1FEE58C7
:10014000FF4FA591B4912FB7F894EC91811126C07F
:1001500090959E239C932FBF08952730A9F02830B7
:10016000C9F0243049F7209180002F7D03C02091F1
:1001700080002F7720938000DFCF24B52F7724BD18
:10018000DBCF24B52F7DFBCF2091B0002F772093BC
:10019000B000D2CF2091B0002F7DF9CF9E2BDACFC7
:1001A0000F931F93CF93DF938C01EB0180911B0181
:1001B00090911C01009739F020911D0130911E0192
:1001C00026173707B8F4BE016F5F7F4F0E94C20346
:1001D0000097E1F090931C0180931B01D0931E01C6
:1001E000C0931D0120911F0130912001232B11F498
:1001F000FC011082D0932001C0931F01B8018091AF
:100200001B0190911C010E94910414C080911B015C
:1002100090911C01009711F00E94390310921C016B
:1002200010921B011092200110921F0110921E01CA
:1002300010921D018BE191E0DF91CF911F910F9101
:1002400008951F920F920FB60F9211242F933F9390
:100250008F939F93AF93BF9380911301909114015B
:10026000A0911501B09116013091120123E0230FE6
:100270002D3758F50196A11DB11D209312018093D1
:10028000130190931401A0931501B093160180916E
:100290000E0190910F01A0911001B09111010196F2
:1002A000A11DB11D80930E0190930F01A093100129
:1002B000B0931101BF91AF919F918F913F912F9179
:1002C0000F900FBE0F901F90189526E8230F0296EF
:1002D000A11DB11DD2CF789484B5826084BD84B550
:1002E000816084BD85B5826085BD85B5816085BD31
:1002F00080916E00816080936E00109281008091E9
:100300008100826080938100809181008160809370
:100310008100809180008160809380008091B10095
:1003200084608093B1008091B00081608093B000C0
:1003300080917A00846080937A0080917A00826054
:1003400080937A0080917A00816080937A00809116
:100350007A00806880937A001092C100E5E9F0E0AD
:100360002491E1E8F0E08491882399F090E0880FEF
:10037000991FFC01E859FF4FA591B491FC01EE587B
:10038000FF4F859194918FB7F894EC91E22BEC9309
:100390008FBFC0E0D0E08FB7F894C0901301D09029
:1003A0001401E0901501F09016018FBF80911F019C
:1003B00090912001892B09F466C066E071E080917C
:1003C0001B0190911C010E948804892B61F581E03A
:1003D0000E9488008091170190911801A091190145
:1003E000B0911A01A7019601281B390B4A0B5B0B30
:1003F000DA01C901843F9140A105B10574F063E0C1
:1004000070E089E091E00E94D000C0921701D09284
:100410001801E0921901F0921A0180911F01909148
:100420002001892B81F169E071E080911B0190919D
:100430001C010E948804892B31F580E00E9488000D
:100440008091170190911801A0911901B0911A01A2
:10045000A7019601281B390B4A0B5B0BDA01C90176
:10046000843F9140A105B10574F062E070E086E040
:1004700091E00E94D000C0921701D0921801E09242
:100480001901F0921A01209709F485CF0E9400000B
:1004900082CFEBE1F1E01182108213821282158289
:1004A000148262E070E086E091E00C94D0008091CC
:1004B0001B0190911C01009711F00C9439030895D1
:1004C0002F923F924F925F926F927F928F929F9264
:1004D000AF92BF92CF92DF92EF92FF920F931F9352
:1004E000CF93DF93CDB7DEB7CA1BDB0B0FB6F89403
:1004F000DEBF0FBECDBF09942A88398848885F8443
:100500006E847D848C849B84AA84B984C884DF80B3
:10051000EE80FD800C811B81AA81B981CE0FD11D97
:100520000FB6F894DEBF0FBECDBFED010895EE0FFC
:10053000FF1F0590F491E02D09940F931F93CF9323
:10054000DF938230910510F482E090E0E091230186
:10055000F091240130E020E0B0E0A0E0309799F481
:100560002115310509F44AC0281B390B2430310507
:10057000D8F58A819B816115710589F1FB0193830F
:100580008283FE0111C0408151810281138148178D
:100590005907E0F04817590799F4109761F012963F
:1005A0000C93129713961C933296CF01DF91CF9143
:1005B0001F910F9108950093230110932401F4CF0C
:1005C0002115310551F04217530738F0A901DB011D
:1005D0009A01BD01DF01F801C1CFEF01F9CF90937E
:1005E000240180932301CDCFFE01E20FF31F8193FD
:1005F00091932250310939832883D7CF209121014B
:1006000030912201232B41F420910201309103010A
:1006100030932201209321012091000130910101AA
:100620002115310541F42DB73EB740910401509199
:100630000501241B350BE0912101F0912201E21705
:10064000F307A0F42E1B3F0B2817390778F0AC01F5
:100650004E5F5F4F2417350748F04E0F5F1F5093D2
:10066000220140932101819391939FCFF0E0E0E03C
:100670009CCFCF93DF930097E9F0FC013297138270
:100680001282A0912301B0912401ED0130E020E01D
:100690001097A1F420813181820F931F20912101B5
:1006A000309122012817390709F061C0F093220127
:1006B000E0932101DF91CF910895EA01CE17DF0782
:1006C000E8F54A815B819E0141155105B1F7E901C9
:1006D000FB83EA8349915991C40FD51FEC17FD079D
:1006E00061F4808191810296840F951FE9019983BD
:1006F0008883828193819B838A83F0E0E0E0129675
:100700008D919C9113970097B9F52D913C9111977C
:10071000CD010296820F931F209121013091220179
:100720002817390739F6309751F5109224011092A5
:100730002301B0932201A0932101BCCFD383C283B4
:1007400040815181840F951FC817D90761F44E5F0E
:100750005F4F88819981480F591F518340838A8157
:100760009B81938382832115310509F0B0CFF093EB
:100770002401E09323019ECFFD01DC01C0CF138251
:100780001282D7CFB0E0A0E0E8ECF3E00C94620274
:100790008C01009751F4CB010E949D028C01C8018D
:1007A000CDB7DEB7E0E10C947E02FC01E60FF71F47
:1007B0009C0122503109E217F30708F49DC0D901CA
:1007C000CD91DC911197C617D70798F0C530D105A8
:1007D00030F3CE0104978617970708F3C61BD70B93
:1007E0002297C193D1936D937C93CF010E943903DB
:1007F000D6CF5B01AC1ABD0A4C018C0E9D1EA09198
:100800002301B0912401512C412CF12CE12C1097A3
:1008100031F580912101909122018815990509F007
:100820005CC04616570608F058C0809100019091B0
:100830000101009741F48DB79EB74091040150919A
:100840000501841B950BE817F90708F055C0F093D4
:100850002201E0932101F90171836083A0CF8D9182
:100860009C91119712966C90129713967C90139707
:10087000A815B90559F56C0142E0C40ED11CCA1483
:10088000DB0420F1AC014A195B09DA0112961597D5
:1008900080F06282738251834083D9016D937C938F
:1008A000E114F10471F0D7011396FC93EE931297C3
:1008B00076CF22968C0F9D1FF90191838083F301DF
:1008C000EFCFF0932401E093230169CF4816590636
:1008D00008F42C017D01D3019ACFCB010E949D0227
:1008E0007C01009749F0AE01B8010E947F04C80165
:1008F0000E943903870153CF10E000E050CFFB0185
:10090000DC0102C001900D9241505040D8F708958B
:10091000FB01DC018D91019080190110D9F3990B35
:100920000895FB01DC0101900D920020E1F708958C
:1009300010E0CDE5D0E004C0FE010E9497022196B0
:0A094000CE35D107C9F7F894FFCFB8
:0E094A000000250180004F4E004F4646000081
:107E0000112484B714BE81FFF0D085E080938100F7
:107E100082E08093C00088E18093C10086E0809377
:107E2000C20080E18093C4008EE0C9D0259A86E02C
:107E300020E33CEF91E0309385002093840096BBD3
:107E4000B09BFECF1D9AA8958150A9F7CC24DD24C4
:107E500088248394B5E0AB2EA1E19A2EF3E0BF2EE7
:107E6000A2D0813461F49FD0082FAFD0023811F036
:107E7000013811F484E001C083E08DD089C08234E0
:107E800011F484E103C0853419F485E0A6D080C0E4
:107E9000853579F488D0E82EFF2485D0082F10E0AE
:107EA000102F00270E291F29000F111F8ED06801E7
:107EB0006FC0863521F484E090D080E0DECF843638
:107EC00009F040C070D06FD0082F6DD080E0C81688
:107ED00080E7D80618F4F601B7BEE895C0E0D1E017
:107EE00062D089930C17E1F7F0E0CF16F0E7DF06D8
:107EF00018F0F601B7BEE89568D007B600FCFDCFD4
:107F0000A601A0E0B1E02C9130E011968C91119780
:107F100090E0982F8827822B932B1296FA010C0160
:107F200087BEE89511244E5F5F4FF1E0A038BF0790
:107F300051F7F601A7BEE89507B600FCFDCF97BE46
:107F4000E89526C08437B1F42ED02DD0F82E2BD052
:107F50003CD0F601EF2C8F010F5F1F4F84911BD097
:107F6000EA94F801C1F70894C11CD11CFA94CF0C13
:107F7000D11C0EC0853739F428D08EE10CD085E9AC
:107F80000AD08FE07ACF813511F488E018D01DD067
:107F900080E101D065CF982F8091C00085FFFCCF94
:107FA0009093C60008958091C00087FFFCCF809118
:107FB000C00084FD01C0A8958091C6000895E0E648
:107FC000F0E098E1908380830895EDDF803219F02E
:107FD00088E0F5DFFFCF84E1DECF1F93182FE3DFCA
:107FE0001150E9F7F2DF1F91089580E0E8DFEE27F6
:047FF000FF270994CA
:027FFE00040479
:0400000300007E007B
:00000001FF
